{
  "contractName": "Lend",
  "abi": [
    {
      "inputs": [
        {
          "name": "_jioTokenAddress",
          "type": "address"
        }
      ],
      "payable": false,
      "stateMutability": "nonpayable",
      "type": "constructor"
    },
    {
      "payable": false,
      "stateMutability": "nonpayable",
      "type": "fallback"
    },
    {
      "anonymous": false,
      "inputs": [
        {
          "indexed": false,
          "name": "",
          "type": "address"
        },
        {
          "indexed": false,
          "name": "",
          "type": "string"
        },
        {
          "indexed": false,
          "name": "",
          "type": "string"
        },
        {
          "indexed": false,
          "name": "",
          "type": "uint256"
        },
        {
          "indexed": false,
          "name": "",
          "type": "string"
        }
      ],
      "name": "Register",
      "type": "event"
    },
    {
      "anonymous": false,
      "inputs": [
        {
          "indexed": false,
          "name": "",
          "type": "address"
        },
        {
          "indexed": false,
          "name": "",
          "type": "string"
        },
        {
          "indexed": false,
          "name": "",
          "type": "uint256"
        },
        {
          "indexed": false,
          "name": "",
          "type": "uint32"
        },
        {
          "indexed": false,
          "name": "",
          "type": "uint256"
        }
      ],
      "name": "SubmitLoanProposal",
      "type": "event"
    },
    {
      "anonymous": false,
      "inputs": [
        {
          "indexed": false,
          "name": "",
          "type": "string"
        },
        {
          "indexed": false,
          "name": "",
          "type": "address"
        },
        {
          "indexed": false,
          "name": "",
          "type": "address"
        },
        {
          "indexed": false,
          "name": "",
          "type": "uint256"
        }
      ],
      "name": "ApproveLoan",
      "type": "event"
    },
    {
      "anonymous": false,
      "inputs": [
        {
          "indexed": false,
          "name": "",
          "type": "string"
        },
        {
          "indexed": false,
          "name": "",
          "type": "address"
        }
      ],
      "name": "RejectLoan",
      "type": "event"
    },
    {
      "anonymous": false,
      "inputs": [
        {
          "indexed": false,
          "name": "",
          "type": "address"
        },
        {
          "indexed": false,
          "name": "",
          "type": "address"
        },
        {
          "indexed": false,
          "name": "",
          "type": "uint256"
        },
        {
          "indexed": false,
          "name": "",
          "type": "uint256"
        }
      ],
      "name": "RepayLoan",
      "type": "event"
    },
    {
      "anonymous": false,
      "inputs": [
        {
          "indexed": false,
          "name": "",
          "type": "address"
        },
        {
          "indexed": false,
          "name": "",
          "type": "string"
        },
        {
          "indexed": false,
          "name": "",
          "type": "uint256"
        }
      ],
      "name": "DeleteProposal",
      "type": "event"
    },
    {
      "anonymous": false,
      "inputs": [
        {
          "indexed": false,
          "name": "",
          "type": "address"
        },
        {
          "indexed": false,
          "name": "",
          "type": "string"
        },
        {
          "indexed": false,
          "name": "",
          "type": "address"
        }
      ],
      "name": "RequestLoan",
      "type": "event"
    },
    {
      "constant": false,
      "inputs": [
        {
          "name": "_aadharNumber",
          "type": "string"
        },
        {
          "name": "_name",
          "type": "string"
        },
        {
          "name": "_dob",
          "type": "uint256"
        },
        {
          "name": "_homeAddress",
          "type": "string"
        }
      ],
      "name": "register",
      "outputs": [],
      "payable": false,
      "stateMutability": "nonpayable",
      "type": "function"
    },
    {
      "constant": true,
      "inputs": [
        {
          "name": "userKey",
          "type": "address"
        }
      ],
      "name": "getUserInfo",
      "outputs": [
        {
          "name": "",
          "type": "string"
        },
        {
          "name": "",
          "type": "string"
        },
        {
          "name": "",
          "type": "uint256"
        },
        {
          "name": "",
          "type": "string"
        },
        {
          "name": "",
          "type": "uint256"
        }
      ],
      "payable": false,
      "stateMutability": "view",
      "type": "function"
    },
    {
      "constant": false,
      "inputs": [
        {
          "name": "_loanID",
          "type": "string"
        },
        {
          "name": "_amount",
          "type": "uint32"
        },
        {
          "name": "_interestRate",
          "type": "uint256"
        },
        {
          "name": "_duration",
          "type": "uint256"
        }
      ],
      "name": "submitLoanProposal",
      "outputs": [],
      "payable": false,
      "stateMutability": "nonpayable",
      "type": "function"
    },
    {
      "constant": false,
      "inputs": [
        {
          "name": "_loanID",
          "type": "string"
        },
        {
          "name": "_borrower",
          "type": "address"
        },
        {
          "name": "_interestRate",
          "type": "uint256"
        }
      ],
      "name": "approveLoan",
      "outputs": [],
      "payable": false,
      "stateMutability": "nonpayable",
      "type": "function"
    },
    {
      "constant": false,
      "inputs": [
        {
          "name": "_loanID",
          "type": "string"
        }
      ],
      "name": "rejectLoan",
      "outputs": [],
      "payable": false,
      "stateMutability": "nonpayable",
      "type": "function"
    },
    {
      "constant": false,
      "inputs": [
        {
          "name": "_loanID",
          "type": "string"
        },
        {
          "name": "_lender",
          "type": "address"
        },
        {
          "name": "repayAmount",
          "type": "uint256"
        }
      ],
      "name": "repayLoan",
      "outputs": [],
      "payable": false,
      "stateMutability": "nonpayable",
      "type": "function"
    },
    {
      "constant": false,
      "inputs": [
        {
          "name": "_loanID",
          "type": "string"
        }
      ],
      "name": "deleteProposal",
      "outputs": [],
      "payable": false,
      "stateMutability": "nonpayable",
      "type": "function"
    },
    {
      "constant": false,
      "inputs": [
        {
          "name": "_loanID",
          "type": "string"
        },
        {
          "name": "_lender",
          "type": "address"
        }
      ],
      "name": "requestLoan",
      "outputs": [],
      "payable": false,
      "stateMutability": "nonpayable",
      "type": "function"
    }
  ],
  "bytecode": "0x608060405234801561001057600080fd5b50604051602080612ad183398101806040528101908080519060200190929190505050806000806101000a81548173ffffffffffffffffffffffffffffffffffffffff021916908373ffffffffffffffffffffffffffffffffffffffff16021790555050612a4e806100836000396000f30060806040526004361061008e576000357c0100000000000000000000000000000000000000000000000000000000900463ffffffff168063317e0f08146100a057806331e4feea146101095780636154274d146101925780636386c1c7146101fb5780636c620de51461039d57806378a9be8d1461042a57806383157300146104bd578063fb0bc6a314610550575b34801561009a57600080fd5b50600080fd5b3480156100ac57600080fd5b50610107600480360381019080803590602001908201803590602001908080601f016020809104026020016040519081016040528093929190818152602001838380828437820191505050505050919291929050505061064f565b005b34801561011557600080fd5b50610190600480360381019080803590602001908201803590602001908080601f0160208091040260200160405190810160405280939291908181526020018383808284378201915050505050509192919290803573ffffffffffffffffffffffffffffffffffffffff169060200190929190505050610a45565b005b34801561019e57600080fd5b506101f9600480360381019080803590602001908201803590602001908080601f0160208091040260200160405190810160405280939291908181526020018383808284378201915050505050509192919290505050610d7c565b005b34801561020757600080fd5b5061023c600480360381019080803573ffffffffffffffffffffffffffffffffffffffff169060200190929190505050610f74565b60405180806020018060200186815260200180602001858152602001848103845289818151815260200191508051906020019080838360005b83811015610290578082015181840152602081019050610275565b50505050905090810190601f1680156102bd5780820380516001836020036101000a031916815260200191505b50848103835288818151815260200191508051906020019080838360005b838110156102f65780820151818401526020810190506102db565b50505050905090810190601f1680156103235780820380516001836020036101000a031916815260200191505b50848103825286818151815260200191508051906020019080838360005b8381101561035c578082015181840152602081019050610341565b50505050905090810190601f1680156103895780820380516001836020036101000a031916815260200191505b509850505050505050505060405180910390f35b3480156103a957600080fd5b50610428600480360381019080803590602001908201803590602001908080601f0160208091040260200160405190810160405280939291908181526020018383808284378201915050505050509192919290803563ffffffff16906020019092919080359060200190929190803590602001909291905050506112ad565b005b34801561043657600080fd5b506104bb600480360381019080803590602001908201803590602001908080601f0160208091040260200160405190810160405280939291908181526020018383808284378201915050505050509192919290803573ffffffffffffffffffffffffffffffffffffffff16906020019092919080359060200190929190505050611719565b005b3480156104c957600080fd5b5061054e600480360381019080803590602001908201803590602001908080601f0160208091040260200160405190810160405280939291908181526020018383808284378201915050505050509192919290803573ffffffffffffffffffffffffffffffffffffffff16906020019092919080359060200190929190505050611da5565b005b34801561055c57600080fd5b5061064d600480360381019080803590602001908201803590602001908080601f0160208091040260200160405190810160405280939291908181526020018383808284378201915050505050509192919290803590602001908201803590602001908080601f016020809104026020016040519081016040528093929190818152602001838380828437820191505050505050919291929080359060200190929190803590602001908201803590602001908080601f0160208091040260200160405190810160405280939291908181526020018383808284378201915050505050509192919290505050612450565b005b610657612857565b600360003373ffffffffffffffffffffffffffffffffffffffff1673ffffffffffffffffffffffffffffffffffffffff168152602001908152602001600020826040518082805190602001908083835b6020831015156106cc57805182526020820191506020810190506020830392506106a7565b6001836020036101000a038019825116818451168082178552505050505050905001915050908152602001604051809103902060c06040519081016040529081600082018054600181600116156101000203166002900480601f0160208091040260200160405190810160405280929190818152602001828054600181600116156101000203166002900480156107a45780601f10610779576101008083540402835291602001916107a4565b820191906000526020600020905b81548152906001019060200180831161078757829003601f168201915b505050505081526020016001820160009054906101000a900473ffffffffffffffffffffffffffffffffffffffff1673ffffffffffffffffffffffffffffffffffffffff1673ffffffffffffffffffffffffffffffffffffffff1681526020016001820160149054906101000a900463ffffffff1663ffffffff1663ffffffff16815260200160028201548152602001600382015481526020016004820160009054906101000a900460ff16600681111561085b57fe5b600681111561086657fe5b81525050905042816080015111801561089957506003600681111561088757fe5b8160a00151600681111561089757fe5b145b15156108a457600080fd5b6001600360003373ffffffffffffffffffffffffffffffffffffffff1673ffffffffffffffffffffffffffffffffffffffff168152602001908152602001600020836040518082805190602001908083835b60208310151561091b57805182526020820191506020810190506020830392506108f6565b6001836020036101000a038019825116818451168082178552505050505050905001915050908152602001604051809103902060040160006101000a81548160ff0219169083600681111561096c57fe5b02179055507f1f50983e35de270322af7e103ca9e0051a05d0e47f9f4a31b1b3d3fa2e2f2b1e823360405180806020018373ffffffffffffffffffffffffffffffffffffffff1673ffffffffffffffffffffffffffffffffffffffff168152602001828103825284818151815260200191508051906020019080838360005b83811015610a065780820151818401526020810190506109eb565b50505050905090810190601f168015610a335780820380516001836020036101000a031916815260200191505b50935050505060405180910390a15050565b80600073ffffffffffffffffffffffffffffffffffffffff168173ffffffffffffffffffffffffffffffffffffffff1614151515610a8257600080fd5b8173ffffffffffffffffffffffffffffffffffffffff163373ffffffffffffffffffffffffffffffffffffffff1614151515610abd57600080fd5b33600360008473ffffffffffffffffffffffffffffffffffffffff1673ffffffffffffffffffffffffffffffffffffffff168152602001908152602001600020846040518082805190602001908083835b602083101515610b335780518252602082019150602081019050602083039250610b0e565b6001836020036101000a038019825116818451168082178552505050505050905001915050908152602001604051809103902060010160006101000a81548173ffffffffffffffffffffffffffffffffffffffff021916908373ffffffffffffffffffffffffffffffffffffffff16021790555060038060008473ffffffffffffffffffffffffffffffffffffffff1673ffffffffffffffffffffffffffffffffffffffff168152602001908152602001600020846040518082805190602001908083835b602083101515610c1d5780518252602082019150602081019050602083039250610bf8565b6001836020036101000a038019825116818451168082178552505050505050905001915050908152602001604051809103902060040160006101000a81548160ff02191690836006811115610c6e57fe5b02179055507fcddb78793e199ccc1abdfc402164fa3a051f9bf8de3b8760df302823d43f694e338484604051808473ffffffffffffffffffffffffffffffffffffffff1673ffffffffffffffffffffffffffffffffffffffff168152602001806020018373ffffffffffffffffffffffffffffffffffffffff1673ffffffffffffffffffffffffffffffffffffffff168152602001828103825284818151815260200191508051906020019080838360005b83811015610d3b578082015181840152602081019050610d20565b50505050905090810190601f168015610d685780820380516001836020036101000a031916815260200191505b5094505050505060405180910390a1505050565b600360003373ffffffffffffffffffffffffffffffffffffffff1673ffffffffffffffffffffffffffffffffffffffff168152602001908152602001600020816040518082805190602001908083835b602083101515610df15780518252602082019150602081019050602083039250610dcc565b6001836020036101000a038019825116818451168082178552505050505050905001915050908152602001604051809103902060008082016000610e3591906128b5565b6001820160006101000a81549073ffffffffffffffffffffffffffffffffffffffff02191690556001820160146101000a81549063ffffffff0219169055600282016000905560038201600090556004820160006101000a81549060ff021916905550507f6da2f6a32f75fc6e35975e33ecd65953e57333ac853537c5e1189c8fe13634f2338242604051808473ffffffffffffffffffffffffffffffffffffffff1673ffffffffffffffffffffffffffffffffffffffff16815260200180602001838152602001828103825284818151815260200191508051906020019080838360005b83811015610f35578082015181840152602081019050610f1a565b50505050905090810190601f168015610f625780820380516001836020036101000a031916815260200191505b5094505050505060405180910390a150565b606080600060606000600260008773ffffffffffffffffffffffffffffffffffffffff1673ffffffffffffffffffffffffffffffffffffffff168152602001908152602001600020600001600260008873ffffffffffffffffffffffffffffffffffffffff1673ffffffffffffffffffffffffffffffffffffffff168152602001908152602001600020600101600260008973ffffffffffffffffffffffffffffffffffffffff1673ffffffffffffffffffffffffffffffffffffffff16815260200190815260200160002060020154600260008a73ffffffffffffffffffffffffffffffffffffffff1673ffffffffffffffffffffffffffffffffffffffff168152602001908152602001600020600301600160003373ffffffffffffffffffffffffffffffffffffffff1673ffffffffffffffffffffffffffffffffffffffff16815260200190815260200160002054848054600181600116156101000203166002900480601f01602080910402602001604051908101604052809291908181526020018280546001816001161561010002031660029004801561115b5780601f106111305761010080835404028352916020019161115b565b820191906000526020600020905b81548152906001019060200180831161113e57829003601f168201915b50505050509450838054600181600116156101000203166002900480601f0160208091040260200160405190810160405280929190818152602001828054600181600116156101000203166002900480156111f75780601f106111cc576101008083540402835291602001916111f7565b820191906000526020600020905b8154815290600101906020018083116111da57829003601f168201915b50505050509350818054600181600116156101000203166002900480601f0160208091040260200160405190810160405280929190818152602001828054600181600116156101000203166002900480156112935780601f1061126857610100808354040283529160200191611293565b820191906000526020600020905b81548152906001019060200180831161127657829003601f168201915b505050505091509450945094509450945091939590929450565b60006112b7612857565b6000809054906101000a900473ffffffffffffffffffffffffffffffffffffffff1691508463ffffffff168273ffffffffffffffffffffffffffffffffffffffff166370a08231336040518263ffffffff167c0100000000000000000000000000000000000000000000000000000000028152600401808273ffffffffffffffffffffffffffffffffffffffff1673ffffffffffffffffffffffffffffffffffffffff168152602001915050602060405180830381600087803b15801561137d57600080fd5b505af1158015611391573d6000803e3d6000fd5b505050506040513d60208110156113a757600080fd5b8101908080519060200190929190505050101580156113c65750600083115b15156113d157600080fd5b61143c866040518082805190602001908083835b60208310151561140a57805182526020820191506020810190506020830392506113e5565b6001836020036101000a0380198251168184511680821785525050505050509050019150506040518091039020612754565b81600001819052508381606001818152505084816040019063ffffffff16908163ffffffff168152505082420181608001818152505060028160a00190600681111561148457fe5b9081600681111561149157fe5b8152505080600360003373ffffffffffffffffffffffffffffffffffffffff1673ffffffffffffffffffffffffffffffffffffffff16815260200190815260200160002082600001516040518082805190602001908083835b60208310151561150f57805182526020820191506020810190506020830392506114ea565b6001836020036101000a0380198251168184511680821785525050505050509050019150509081526020016040518091039020600082015181600001908051906020019061155e9291906128fd565b5060208201518160010160006101000a81548173ffffffffffffffffffffffffffffffffffffffff021916908373ffffffffffffffffffffffffffffffffffffffff16021790555060408201518160010160146101000a81548163ffffffff021916908363ffffffff160217905550606082015181600201556080820151816003015560a08201518160040160006101000a81548160ff0219169083600681111561160557fe5b02179055509050507f391266c7a0102188beea3efae8e43d96c1653192953d5a6cba0a828ea329c275338260000151836060015184604001518560800151604051808673ffffffffffffffffffffffffffffffffffffffff1673ffffffffffffffffffffffffffffffffffffffff168152602001806020018581526020018463ffffffff1663ffffffff168152602001838152602001828103825286818151815260200191508051906020019080838360005b838110156116d35780820151818401526020810190506116b8565b50505050905090810190601f1680156117005780820380516001836020036101000a031916815260200191505b50965050505050505060405180910390a1505050505050565b6000611723612857565b83600073ffffffffffffffffffffffffffffffffffffffff168173ffffffffffffffffffffffffffffffffffffffff161415151561176057600080fd5b6000809054906101000a900473ffffffffffffffffffffffffffffffffffffffff169250600360008673ffffffffffffffffffffffffffffffffffffffff1673ffffffffffffffffffffffffffffffffffffffff168152602001908152602001600020866040518082805190602001908083835b6020831015156117f957805182526020820191506020810190506020830392506117d4565b6001836020036101000a038019825116818451168082178552505050505050905001915050908152602001604051809103902060c06040519081016040529081600082018054600181600116156101000203166002900480601f0160208091040260200160405190810160405280929190818152602001828054600181600116156101000203166002900480156118d15780601f106118a6576101008083540402835291602001916118d1565b820191906000526020600020905b8154815290600101906020018083116118b457829003601f168201915b505050505081526020016001820160009054906101000a900473ffffffffffffffffffffffffffffffffffffffff1673ffffffffffffffffffffffffffffffffffffffff1673ffffffffffffffffffffffffffffffffffffffff1681526020016001820160149054906101000a900463ffffffff1663ffffffff1663ffffffff16815260200160028201548152602001600382015481526020016004820160009054906101000a900460ff16600681111561198857fe5b600681111561199357fe5b815250509150838373ffffffffffffffffffffffffffffffffffffffff166370a08231336040518263ffffffff167c0100000000000000000000000000000000000000000000000000000000028152600401808273ffffffffffffffffffffffffffffffffffffffff1673ffffffffffffffffffffffffffffffffffffffff168152602001915050602060405180830381600087803b158015611a3557600080fd5b505af1158015611a49573d6000803e3d6000fd5b505050506040513d6020811015611a5f57600080fd5b810190808051906020019092919050505010158015611a815750428260800151115b8015611aa7575060036006811115611a9557fe5b8260a001516006811115611aa557fe5b145b1515611ab257600080fd5b4282608001511115611b0c5760018060003373ffffffffffffffffffffffffffffffffffffffff1673ffffffffffffffffffffffffffffffffffffffff168152602001908152602001600020600082825401925050819055505b6004600360008773ffffffffffffffffffffffffffffffffffffffff1673ffffffffffffffffffffffffffffffffffffffff168152602001908152602001600020876040518082805190602001908083835b602083101515611b835780518252602082019150602081019050602083039250611b5e565b6001836020036101000a038019825116818451168082178552505050505050905001915050908152602001604051809103902060040160006101000a81548160ff02191690836006811115611bd457fe5b02179055508273ffffffffffffffffffffffffffffffffffffffff166323b872dd3387876040518463ffffffff167c0100000000000000000000000000000000000000000000000000000000028152600401808473ffffffffffffffffffffffffffffffffffffffff1673ffffffffffffffffffffffffffffffffffffffff1681526020018373ffffffffffffffffffffffffffffffffffffffff1673ffffffffffffffffffffffffffffffffffffffff1681526020018281526020019350505050602060405180830381600087803b158015611cb057600080fd5b505af1158015611cc4573d6000803e3d6000fd5b505050506040513d6020811015611cda57600080fd5b81019080805190602001909291905050501515611cf657600080fd5b7f76129149586e2c39185bc4f78c747353dcf36891c16d0d0c3ffd6ea200ab622a33868642604051808573ffffffffffffffffffffffffffffffffffffffff1673ffffffffffffffffffffffffffffffffffffffff1681526020018473ffffffffffffffffffffffffffffffffffffffff1673ffffffffffffffffffffffffffffffffffffffff16815260200183815260200182815260200194505050505060405180910390a1505050505050565b6000611daf612857565b83600073ffffffffffffffffffffffffffffffffffffffff168173ffffffffffffffffffffffffffffffffffffffff1614151515611dec57600080fd5b6000809054906101000a900473ffffffffffffffffffffffffffffffffffffffff169250600360003373ffffffffffffffffffffffffffffffffffffffff1673ffffffffffffffffffffffffffffffffffffffff168152602001908152602001600020866040518082805190602001908083835b602083101515611e855780518252602082019150602081019050602083039250611e60565b6001836020036101000a038019825116818451168082178552505050505050905001915050908152602001604051809103902060c06040519081016040529081600082018054600181600116156101000203166002900480601f016020809104026020016040519081016040528092919081815260200182805460018160011615610100020316600290048015611f5d5780601f10611f3257610100808354040283529160200191611f5d565b820191906000526020600020905b815481529060010190602001808311611f4057829003601f168201915b505050505081526020016001820160009054906101000a900473ffffffffffffffffffffffffffffffffffffffff1673ffffffffffffffffffffffffffffffffffffffff1673ffffffffffffffffffffffffffffffffffffffff1681526020016001820160149054906101000a900463ffffffff1663ffffffff1663ffffffff16815260200160028201548152602001600382015481526020016004820160009054906101000a900460ff16600681111561201457fe5b600681111561201f57fe5b815250509150816040015163ffffffff168373ffffffffffffffffffffffffffffffffffffffff166370a08231336040518263ffffffff167c0100000000000000000000000000000000000000000000000000000000028152600401808273ffffffffffffffffffffffffffffffffffffffff1673ffffffffffffffffffffffffffffffffffffffff168152602001915050602060405180830381600087803b1580156120cb57600080fd5b505af11580156120df573d6000803e3d6000fd5b505050506040513d60208110156120f557600080fd5b8101908080519060200190929190505050101580156121175750428260800151115b801561213d57506003600681111561212b57fe5b8260a00151600681111561213b57fe5b145b151561214857600080fd5b6000600360003373ffffffffffffffffffffffffffffffffffffffff1673ffffffffffffffffffffffffffffffffffffffff168152602001908152602001600020876040518082805190602001908083835b6020831015156121bf578051825260208201915060208101905060208303925061219a565b6001836020036101000a038019825116818451168082178552505050505050905001915050908152602001604051809103902060040160006101000a81548160ff0219169083600681111561221057fe5b02179055508273ffffffffffffffffffffffffffffffffffffffff166323b872dd338785604001516040518463ffffffff167c0100000000000000000000000000000000000000000000000000000000028152600401808473ffffffffffffffffffffffffffffffffffffffff1673ffffffffffffffffffffffffffffffffffffffff1681526020018373ffffffffffffffffffffffffffffffffffffffff1673ffffffffffffffffffffffffffffffffffffffff1681526020018263ffffffff1681526020019350505050602060405180830381600087803b1580156122f657600080fd5b505af115801561230a573d6000803e3d6000fd5b505050506040513d602081101561232057600080fd5b8101908080519060200190929190505050151561233c57600080fd5b7ffc813518058636fa33827ad3da8cc29a4da1391ef8561edfecedfd464ccc2e1b8633878760405180806020018573ffffffffffffffffffffffffffffffffffffffff1673ffffffffffffffffffffffffffffffffffffffff1681526020018473ffffffffffffffffffffffffffffffffffffffff1673ffffffffffffffffffffffffffffffffffffffff168152602001838152602001828103825286818151815260200191508051906020019080838360005b8381101561240b5780820151818401526020810190506123f0565b50505050905090810190601f1680156124385780820380516001836020036101000a031916815260200191505b509550505050505060405180910390a1505050505050565b83600260003373ffffffffffffffffffffffffffffffffffffffff1673ffffffffffffffffffffffffffffffffffffffff16815260200190815260200160002060000190805190602001906124a692919061297d565b5082600260003373ffffffffffffffffffffffffffffffffffffffff1673ffffffffffffffffffffffffffffffffffffffff16815260200190815260200160002060010190805190602001906124fd92919061297d565b5081600260003373ffffffffffffffffffffffffffffffffffffffff1673ffffffffffffffffffffffffffffffffffffffff1681526020019081526020016000206002018190555080600260003373ffffffffffffffffffffffffffffffffffffffff1673ffffffffffffffffffffffffffffffffffffffff168152602001908152602001600020600301908051906020019061259b92919061297d565b507f94d8493e543a4b4b0edf9410635c15a0001116a48aafef21248f4df21598f2283385858585604051808673ffffffffffffffffffffffffffffffffffffffff1673ffffffffffffffffffffffffffffffffffffffff168152602001806020018060200185815260200180602001848103845288818151815260200191508051906020019080838360005b83811015612642578082015181840152602081019050612627565b50505050905090810190601f16801561266f5780820380516001836020036101000a031916815260200191505b50848103835287818151815260200191508051906020019080838360005b838110156126a857808201518184015260208101905061268d565b50505050905090810190601f1680156126d55780820380516001836020036101000a031916815260200191505b50848103825285818151815260200191508051906020019080838360005b8381101561270e5780820151818401526020810190506126f3565b50505050905090810190601f16801561273b5780820380516001836020036101000a031916815260200191505b509850505050505050505060405180910390a150505050565b60608060008060206040519080825280601f01601f19166020018201604052801561278e5781602001602082028038833980820191505090505b509250600091505b602082101561284c578160080260020a856001900402600102905060007f010000000000000000000000000000000000000000000000000000000000000002817effffffffffffffffffffffffffffffffffffffffffffffffffffffffffffff191614151561283f5780838381518110151561280e57fe5b9060200101907effffffffffffffffffffffffffffffffffffffffffffffffffffffffffffff1916908160001a9053505b8180600101925050612796565b829350505050919050565b60c06040519081016040528060608152602001600073ffffffffffffffffffffffffffffffffffffffff168152602001600063ffffffff1681526020016000815260200160008152602001600060068111156128af57fe5b81525090565b50805460018160011615610100020316600290046000825580601f106128db57506128fa565b601f0160209004906000526020600020908101906128f991906129fd565b5b50565b828054600181600116156101000203166002900490600052602060002090601f016020900481019282601f1061293e57805160ff191683800117855561296c565b8280016001018555821561296c579182015b8281111561296b578251825591602001919060010190612950565b5b50905061297991906129fd565b5090565b828054600181600116156101000203166002900490600052602060002090601f016020900481019282601f106129be57805160ff19168380011785556129ec565b828001600101855582156129ec579182015b828111156129eb5782518255916020019190600101906129d0565b5b5090506129f991906129fd565b5090565b612a1f91905b80821115612a1b576000816000905550600101612a03565b5090565b905600a165627a7a723058201274914939f8cae1661d0ca4265455faf5893b6cfe62f20e364876cca5c8fbb70029",
  "source": "pragma solidity ^0.4.23;\n\ncontract JioToken {\n    \n    uint256 public totalSupply;\n\n    function balanceOf(address _owner) public view returns (uint256 balance);\n    \n    function transfer(address _to, uint256 _value) public returns (bool success);\n\n    function transferFrom(address _from, address _to, uint256 _value) public returns (bool success);\n\n    function approve(address _spender, uint256 _value) public returns (bool success);\n\n    function allowance(address _owner, address _spender) public view returns (uint256 remaining);\n\n    event Transfer(address indexed _from, address indexed _to, uint256 _value);\n    event Approval(address indexed _owner, address indexed _spender, uint256 _value);\n}\n\ncontract Lend {\n    \n    enum LoanStatus { APPROVED, REJECTED, SUBMITTED, REQUESTED, REPAYED, ACTIVE, DELETED }\n    \n    address jioTokenAddress;\n    \n    struct PersonInfo {\n        string aadharNumber;\n        string name;\n        uint dob;\n        string homeAddress;\n    }\n    \n    struct Proposal {\n        string loanID;\n        address borrower;\n        uint32 amount;\n        uint interestRate;\n        uint duration;\n        LoanStatus status;\n    }\n    \n    \n    mapping (address => uint) rewardPoints;\n    mapping (address => PersonInfo) users;\n    mapping (address => mapping(string => Proposal)) lenderProposals;\n    \n    \n    event Register(address, string, string, uint, string);\n    event SubmitLoanProposal(address, string, uint, uint32, uint);\n    event ApproveLoan(string, address, address, uint);\n    event RejectLoan(string, address);\n    event RepayLoan(address, address, uint, uint);\n    event DeleteProposal(address, string, uint);\n    event RequestLoan(address, string, address); \n    \n    modifier validAddress(address _address) {\n        require(_address != address(0));\n        _;\n    }\n    \n    constructor (address _jioTokenAddress) public {\n        jioTokenAddress = _jioTokenAddress;\n    }\n    \n    function register(string _aadharNumber, string _name, uint _dob, string _homeAddress) public {\n        users[msg.sender].aadharNumber = _aadharNumber;\n        users[msg.sender].name = _name;\n        users[msg.sender].dob = _dob;\n        users[msg.sender].homeAddress = _homeAddress;\n        \n        emit Register(msg.sender, _aadharNumber, _name, _dob, _homeAddress);\n    }\n    \n    function getUserInfo(address userKey) public view returns(string, string, uint, string, uint) {\n        return(users[userKey].aadharNumber, users[userKey].name, users[userKey].dob, users[userKey].homeAddress, rewardPoints[msg.sender]);\n    }\n    \n    function submitLoanProposal(string _loanID, uint32 _amount, uint _interestRate, uint _duration) public {\n        JioToken token = JioToken(jioTokenAddress);\n        \n        require((token.balanceOf(msg.sender) >= _amount) && _duration > 0);\n        \n        Proposal memory proposal;\n    \n        proposal.loanID = bytes32ToString(keccak256(_loanID));\n        proposal.interestRate = _interestRate;\n        proposal.amount = _amount;\n        proposal.duration = now + _duration;\n        proposal.status = LoanStatus.SUBMITTED;\n        \n        lenderProposals[msg.sender][proposal.loanID] = proposal;\n            \n        emit SubmitLoanProposal(msg.sender, proposal.loanID, proposal.interestRate, proposal.amount, proposal.duration);\n    }\n    \n    function approveLoan(string _loanID, address _borrower, uint _interestRate) public validAddress(_borrower) {\n        JioToken token = JioToken(jioTokenAddress);\n        \n        Proposal memory proposal = lenderProposals[msg.sender][_loanID];\n        \n        require((token.balanceOf(msg.sender) >= proposal.amount) \n        && proposal.duration > now \n        && proposal.status == LoanStatus.REQUESTED);\n        \n        lenderProposals[msg.sender][_loanID].status = LoanStatus.APPROVED;\n        \n        require(token.transferFrom(msg.sender, _borrower, proposal.amount));\n        \n        emit ApproveLoan(_loanID, msg.sender, _borrower, _interestRate);\n    }\n    \n    function rejectLoan(string _loanID) public {\n        Proposal memory proposal = lenderProposals[msg.sender][_loanID];\n        \n        require( proposal.duration > now && proposal.status == LoanStatus.REQUESTED);\n        \n        lenderProposals[msg.sender][_loanID].status = LoanStatus.REJECTED;\n        \n        emit RejectLoan(_loanID, msg.sender);\n    }\n    \n    function repayLoan(string _loanID, address _lender, uint repayAmount) public validAddress(_lender){\n        JioToken token = JioToken(jioTokenAddress);\n        \n        Proposal memory proposal = lenderProposals[_lender][_loanID];\n\n        require((token.balanceOf(msg.sender) >= repayAmount) \n        && proposal.duration > now \n        && proposal.status == LoanStatus.REQUESTED);\n        \n        if(proposal.duration > now) {\n            rewardPoints[msg.sender] += 1;\n        }\n        \n        lenderProposals[_lender][_loanID].status = LoanStatus.REPAYED;\n        require(token.transferFrom(msg.sender, _lender, repayAmount));\n        \n        emit RepayLoan(msg.sender, _lender, repayAmount, now);\n    }\n    \n    function deleteProposal(string _loanID) public {\n        delete lenderProposals[msg.sender][_loanID];\n        \n        emit DeleteProposal(msg.sender, _loanID, now);\n    }\n    \n    function requestLoan(string _loanID, address _lender) public validAddress(_lender){\n        require(msg.sender != _lender);\n        lenderProposals[_lender][_loanID].borrower = msg.sender;\n        lenderProposals[_lender][_loanID].status = LoanStatus.REQUESTED;\n        \n        emit RequestLoan(msg.sender, _loanID, _lender);\n    }\n    \n    function toBytesFromAddress(address a) internal pure returns (bytes b) {\n        assembly {\n            let m := mload(0x40)\n            mstore(add(m, 20), xor(0x140000000000000000000000000000000000000000, a))\n            mstore(0x40, add(m, 52))\n            b := m\n        }\n    }\n    \n    function toBytesFromUint(uint256 x) internal pure returns (bytes b) {\n        b = new bytes(32);\n        assembly { mstore(add(b, 32), x) }\n    }\n    \n    function bytes32ToString (bytes32 data) internal pure returns (string) {\n        bytes memory bytesString = new bytes(32);\n        for (uint j=0; j<32; j++) {\n            byte char = byte(bytes32(uint(data) * 2 ** (8 * j)));\n            if (char != 0) {\n                bytesString[j] = char;\n            }\n        }\n        return string(bytesString);\n    }\n    \n      function() public{\n        revert();\n    }\n}",
  "sourcePath": "D:\\Profiles\\debansal\\Desktop\\Cabs\\Code\\contracts\\Lending.sol",
  "compiler": {
    "name": "solc",
    "version": "0.4.23+commit.124ca40d.Emscripten.clang"
  },
  "schemaVersion": "2.0.0",
  "updatedAt": "2018-05-14T10:46:07.472Z"
}